:020000040000FA
:0400000002EF3FF0DC
:107DCA003F0006005B004F0066006D007D00070063
:107DDA007F00670076003F00380077000F0EC1125F
:107DEA00000E896E000E8C6E000E926E000E956E5D
:107DFA00938093829388F19E1200CA0EF66E7D0ECE
:107E0A00F76E000EF86E00EE01F010EE1CF009009D
:107E1A00F5CFEEFFE550E150FAE1000115EF3FF032
:107E2A00F3EC3EF0000E1E6E0A0E1D6ED8901D3445
:107E3A00D96E1E34DA6E010ED926000EDA22DF5010
:107E4A00836E0D0E206EAF0E1F6EB60EE82EFED795
:107E5A001F2EFCD7202EFAD700D01D4A1E2A1EBE7E
:107E6A0040EF3FF01E5009E10E0E1D5CD8A040EF16
:107E7A003FF042EF3FF01BEF3FF01FC083FF0D0EB4
:107E8A00206EAF0E1F6EB60EE82EFED71F2EFCD741
:107E9A00202EFAD700D0000E1E6E000E1D6ED8904E
:107EAA001D34D96E1E34DA6E010ED926000EDA227E
:107EBA00DF50836E0D0E206EAF0E1F6EB60EE82ECB
:107ECA00FED71F2EFCD7202EFAD700D01D4A1E2A15
:107EDA001EBE79EF3FF01E5009E10A0E1D5CD8A0C4
:107EEA0079EF3FF07BEF3FF054EF3FF01FC083FF85
:107EFA000D0E206EAF0E1F6EB60EE82EFED71F2E89
:107F0A00FCD7202EFAD700D0000E1E6E000E1D6E72
:107F1A0013C083FF0D0E206EAF0E1F6EB60EE82E35
:107F2A00FED71F2EFCD7202EFAD700D01FC083FF02
:107F3A000D0E206EAF0E1F6EB60EE82EFED71F2E48
:107F4A00FCD7202EFAD700D01D4A1E2A1EBEB7EF34
:107F5A003FF01E5009E10A0E1D5CD8A0B7EF3FF0B2
:107F6A00B9EF3FF08DEF3FF00D0E206EAF0E1F6E92
:107F7A00B60EE82EFED71F2EFCD7202EFAD700D039
:107F8A00000E1E6E090E1D6ED8901D34D96E1E3459
:107F9A00DA6E010ED926000EDA22DF50836E0D0E3C
:107FAA00206EAF0E1F6EB60EE82EFED71F2EFCD720
:107FBA00202EFAD700D01D06D8A01E061EBEEAEF54
:107FCA003FF0E8EF3FF0C9EF3FF01FC083FF0D0E0F
:107FDA00206EAF0E1F6EB60EE82EFED71F2EFCD7F0
:107FEA00202EFAD700D0000E836E8990899217EF5F
:067FFA003FF000EF00F073
:020000040020DA
:08000000FFFFFFFFFFFFFFFF00
:020000040030CA
:0E000000000C181EFF8381FF0FC00FE00F40A1
:00000001FF
